{
  "contractName": "MyTokenMinter",
  "abi": [
    {
      "inputs": [],
      "stateMutability": "nonpayable",
      "type": "constructor"
    },
    {
      "anonymous": false,
      "inputs": [
        {
          "indexed": true,
          "internalType": "address",
          "name": "owner",
          "type": "address"
        },
        {
          "indexed": true,
          "internalType": "address",
          "name": "approved",
          "type": "address"
        },
        {
          "indexed": true,
          "internalType": "uint256",
          "name": "tokenId",
          "type": "uint256"
        }
      ],
      "name": "Approval",
      "type": "event"
    },
    {
      "anonymous": false,
      "inputs": [
        {
          "indexed": true,
          "internalType": "address",
          "name": "owner",
          "type": "address"
        },
        {
          "indexed": true,
          "internalType": "address",
          "name": "operator",
          "type": "address"
        },
        {
          "indexed": false,
          "internalType": "bool",
          "name": "approved",
          "type": "bool"
        }
      ],
      "name": "ApprovalForAll",
      "type": "event"
    },
    {
      "anonymous": false,
      "inputs": [
        {
          "indexed": true,
          "internalType": "address",
          "name": "from",
          "type": "address"
        },
        {
          "indexed": true,
          "internalType": "address",
          "name": "to",
          "type": "address"
        },
        {
          "indexed": true,
          "internalType": "uint256",
          "name": "tokenId",
          "type": "uint256"
        }
      ],
      "name": "Transfer",
      "type": "event"
    },
    {
      "inputs": [
        {
          "internalType": "address",
          "name": "to",
          "type": "address"
        },
        {
          "internalType": "uint256",
          "name": "tokenId",
          "type": "uint256"
        }
      ],
      "name": "approve",
      "outputs": [],
      "stateMutability": "nonpayable",
      "type": "function"
    },
    {
      "inputs": [
        {
          "internalType": "address",
          "name": "owner",
          "type": "address"
        }
      ],
      "name": "balanceOf",
      "outputs": [
        {
          "internalType": "uint256",
          "name": "",
          "type": "uint256"
        }
      ],
      "stateMutability": "view",
      "type": "function"
    },
    {
      "inputs": [
        {
          "internalType": "uint256",
          "name": "tokenId",
          "type": "uint256"
        }
      ],
      "name": "getApproved",
      "outputs": [
        {
          "internalType": "address",
          "name": "",
          "type": "address"
        }
      ],
      "stateMutability": "view",
      "type": "function"
    },
    {
      "inputs": [
        {
          "internalType": "address",
          "name": "owner",
          "type": "address"
        },
        {
          "internalType": "address",
          "name": "operator",
          "type": "address"
        }
      ],
      "name": "isApprovedForAll",
      "outputs": [
        {
          "internalType": "bool",
          "name": "",
          "type": "bool"
        }
      ],
      "stateMutability": "view",
      "type": "function"
    },
    {
      "inputs": [],
      "name": "name",
      "outputs": [
        {
          "internalType": "string",
          "name": "",
          "type": "string"
        }
      ],
      "stateMutability": "view",
      "type": "function"
    },
    {
      "inputs": [
        {
          "internalType": "uint256",
          "name": "tokenId",
          "type": "uint256"
        }
      ],
      "name": "ownerOf",
      "outputs": [
        {
          "internalType": "address",
          "name": "",
          "type": "address"
        }
      ],
      "stateMutability": "view",
      "type": "function"
    },
    {
      "inputs": [
        {
          "internalType": "address",
          "name": "from",
          "type": "address"
        },
        {
          "internalType": "address",
          "name": "to",
          "type": "address"
        },
        {
          "internalType": "uint256",
          "name": "tokenId",
          "type": "uint256"
        }
      ],
      "name": "safeTransferFrom",
      "outputs": [],
      "stateMutability": "nonpayable",
      "type": "function"
    },
    {
      "inputs": [
        {
          "internalType": "address",
          "name": "from",
          "type": "address"
        },
        {
          "internalType": "address",
          "name": "to",
          "type": "address"
        },
        {
          "internalType": "uint256",
          "name": "tokenId",
          "type": "uint256"
        },
        {
          "internalType": "bytes",
          "name": "_data",
          "type": "bytes"
        }
      ],
      "name": "safeTransferFrom",
      "outputs": [],
      "stateMutability": "nonpayable",
      "type": "function"
    },
    {
      "inputs": [
        {
          "internalType": "address",
          "name": "operator",
          "type": "address"
        },
        {
          "internalType": "bool",
          "name": "approved",
          "type": "bool"
        }
      ],
      "name": "setApprovalForAll",
      "outputs": [],
      "stateMutability": "nonpayable",
      "type": "function"
    },
    {
      "inputs": [
        {
          "internalType": "bytes4",
          "name": "interfaceId",
          "type": "bytes4"
        }
      ],
      "name": "supportsInterface",
      "outputs": [
        {
          "internalType": "bool",
          "name": "",
          "type": "bool"
        }
      ],
      "stateMutability": "view",
      "type": "function"
    },
    {
      "inputs": [],
      "name": "symbol",
      "outputs": [
        {
          "internalType": "string",
          "name": "",
          "type": "string"
        }
      ],
      "stateMutability": "view",
      "type": "function"
    },
    {
      "inputs": [
        {
          "internalType": "address",
          "name": "from",
          "type": "address"
        },
        {
          "internalType": "address",
          "name": "to",
          "type": "address"
        },
        {
          "internalType": "uint256",
          "name": "tokenId",
          "type": "uint256"
        }
      ],
      "name": "transferFrom",
      "outputs": [],
      "stateMutability": "nonpayable",
      "type": "function"
    },
    {
      "inputs": [
        {
          "internalType": "uint256",
          "name": "tokenId",
          "type": "uint256"
        }
      ],
      "name": "tokenURI",
      "outputs": [
        {
          "internalType": "string",
          "name": "",
          "type": "string"
        }
      ],
      "stateMutability": "view",
      "type": "function"
    },
    {
      "inputs": [],
      "name": "getAlltokens",
      "outputs": [
        {
          "components": [
            {
              "internalType": "uint256",
              "name": "id",
              "type": "uint256"
            },
            {
              "internalType": "string",
              "name": "uri",
              "type": "string"
            }
          ],
          "internalType": "struct MyTokenMinter.RenderToken[]",
          "name": "",
          "type": "tuple[]"
        }
      ],
      "stateMutability": "view",
      "type": "function"
    },
    {
      "inputs": [
        {
          "internalType": "address",
          "name": "recipient",
          "type": "address"
        },
        {
          "internalType": "string",
          "name": "uri",
          "type": "string"
        }
      ],
      "name": "mint",
      "outputs": [
        {
          "internalType": "uint256",
          "name": "",
          "type": "uint256"
        }
      ],
      "stateMutability": "nonpayable",
      "type": "function"
    }
  ],
  "bytecode": "0x60806040523480156200001157600080fd5b506040518060400160405280600d81526020016c26bcaa37b5b2b726b4b73a32b960991b815250604051806040016040528060038152602001624d544d60e81b815250816000908162000065919062000122565b50600162000074828262000122565b505050620001ee565b634e487b7160e01b600052604160045260246000fd5b600181811c90821680620000a857607f821691505b602082108103620000c957634e487b7160e01b600052602260045260246000fd5b50919050565b601f8211156200011d57600081815260208120601f850160051c81016020861015620000f85750805b601f850160051c820191505b81811015620001195782815560010162000104565b5050505b505050565b81516001600160401b038111156200013e576200013e6200007d565b62000156816200014f845462000093565b84620000cf565b602080601f8311600181146200018e5760008415620001755750858301515b600019600386901b1c1916600185901b17855562000119565b600085815260208120601f198616915b82811015620001bf578886015182559484019460019091019084016200019e565b5085821015620001de5787850151600019600388901b60f8161c191681555b5050505050600190811b01905550565b61159480620001fe6000396000f3fe608060405234801561001057600080fd5b50600436106100f55760003560e01c806370a0823111610097578063c87b56dd11610066578063c87b56dd146101ff578063d0def52114610212578063d3d1796f14610225578063e985e9c51461023a57600080fd5b806370a08231146101b057806395d89b41146101d1578063a22cb465146101d9578063b88d4fde146101ec57600080fd5b8063095ea7b3116100d3578063095ea7b31461016257806323b872dd1461017757806342842e0e1461018a5780636352211e1461019d57600080fd5b806301ffc9a7146100fa57806306fdde0314610122578063081812fc14610137575b600080fd5b61010d610108366004610f1e565b610276565b60405190151581526020015b60405180910390f35b61012a6102c8565b6040516101199190610f8f565b61014a610145366004610fa2565b61035a565b6040516001600160a01b039091168152602001610119565b610175610170366004610fd7565b6103f4565b005b610175610185366004611001565b610509565b610175610198366004611001565b61053a565b61014a6101ab366004610fa2565b610555565b6101c36101be36600461103d565b6105cc565b604051908152602001610119565b61012a610653565b6101756101e7366004611058565b610662565b6101756101fa366004611120565b610671565b61012a61020d366004610fa2565b6106a9565b6101c361022036600461119c565b61076c565b61022d6107a3565b60405161011991906111fe565b61010d610248366004611272565b6001600160a01b03918216600090815260056020908152604080832093909416825291909152205460ff1690565b60006001600160e01b031982166380ac58cd60e01b14806102a757506001600160e01b03198216635b5e139f60e01b145b806102c257506301ffc9a760e01b6001600160e01b03198316145b92915050565b6060600080546102d7906112a5565b80601f0160208091040260200160405190810160405280929190818152602001828054610303906112a5565b80156103505780601f1061032557610100808354040283529160200191610350565b820191906000526020600020905b81548152906001019060200180831161033357829003601f168201915b5050505050905090565b6000818152600260205260408120546001600160a01b03166103d85760405162461bcd60e51b815260206004820152602c60248201527f4552433732313a20617070726f76656420717565727920666f72206e6f6e657860448201526b34b9ba32b73a103a37b5b2b760a11b60648201526084015b60405180910390fd5b506000908152600460205260409020546001600160a01b031690565b60006103ff82610555565b9050806001600160a01b0316836001600160a01b03160361046c5760405162461bcd60e51b815260206004820152602160248201527f4552433732313a20617070726f76616c20746f2063757272656e74206f776e656044820152603960f91b60648201526084016103cf565b336001600160a01b038216148061048857506104888133610248565b6104fa5760405162461bcd60e51b815260206004820152603860248201527f4552433732313a20617070726f76652063616c6c6572206973206e6f74206f7760448201527f6e6572206e6f7220617070726f76656420666f7220616c6c000000000000000060648201526084016103cf565b61050483836108a8565b505050565b6105133382610916565b61052f5760405162461bcd60e51b81526004016103cf906112df565b610504838383610a0d565b61050483838360405180602001604052806000815250610671565b6000818152600260205260408120546001600160a01b0316806102c25760405162461bcd60e51b815260206004820152602960248201527f4552433732313a206f776e657220717565727920666f72206e6f6e657869737460448201526832b73a103a37b5b2b760b91b60648201526084016103cf565b60006001600160a01b0382166106375760405162461bcd60e51b815260206004820152602a60248201527f4552433732313a2062616c616e636520717565727920666f7220746865207a65604482015269726f206164647265737360b01b60648201526084016103cf565b506001600160a01b031660009081526003602052604090205490565b6060600180546102d7906112a5565b61066d338383610ba9565b5050565b61067b3383610916565b6106975760405162461bcd60e51b81526004016103cf906112df565b6106a384848484610c77565b50505050565b6000818152600260205260409020546060906001600160a01b03166106cd57600080fd5b600082815260076020526040812080546106e6906112a5565b80601f0160208091040260200160405190810160405280929190818152602001828054610712906112a5565b801561075f5780601f106107345761010080835404028352916020019161075f565b820191906000526020600020905b81548152906001019060200180831161074257829003601f168201915b5093979650505050505050565b60008061077860065490565b90506107848482610caa565b61078e8184610dec565b61079c600680546001019055565b5092915050565b606060006107b060065490565b90506000808267ffffffffffffffff8111156107ce576107ce611094565b60405190808252806020026020018201604052801561081457816020015b6040805180820190915260008152606060208201528152602001906001900390816107ec5790505b50905060005b838110156108a0576000838152600260205260409020546001600160a01b03161561088057600061084a846106a9565b905060405180604001604052808581526020018281525083858151811061087357610873611330565b6020026020010181905250505b8261088a8161135c565b93505080806108989061135c565b91505061081a565b509392505050565b600081815260046020526040902080546001600160a01b0319166001600160a01b03841690811790915581906108dd82610555565b6001600160a01b03167f8c5be1e5ebec7d5bd14f71427d1e84f3dd0314c0f7b2291e5b200ac8c7c3b92560405160405180910390a45050565b6000818152600260205260408120546001600160a01b031661098f5760405162461bcd60e51b815260206004820152602c60248201527f4552433732313a206f70657261746f7220717565727920666f72206e6f6e657860448201526b34b9ba32b73a103a37b5b2b760a11b60648201526084016103cf565b600061099a83610555565b9050806001600160a01b0316846001600160a01b031614806109e157506001600160a01b0380821660009081526005602090815260408083209388168352929052205460ff165b80610a055750836001600160a01b03166109fa8461035a565b6001600160a01b0316145b949350505050565b826001600160a01b0316610a2082610555565b6001600160a01b031614610a845760405162461bcd60e51b815260206004820152602560248201527f4552433732313a207472616e736665722066726f6d20696e636f72726563742060448201526437bbb732b960d91b60648201526084016103cf565b6001600160a01b038216610ae65760405162461bcd60e51b8152602060048201526024808201527f4552433732313a207472616e7366657220746f20746865207a65726f206164646044820152637265737360e01b60648201526084016103cf565b610af16000826108a8565b6001600160a01b0383166000908152600360205260408120805460019290610b1a908490611375565b90915550506001600160a01b0382166000908152600360205260408120805460019290610b4890849061138c565b909155505060008181526002602052604080822080546001600160a01b0319166001600160a01b0386811691821790925591518493918716917fddf252ad1be2c89b69c2b068fc378daa952ba7f163c4a11628f55a4df523b3ef91a4505050565b816001600160a01b0316836001600160a01b031603610c0a5760405162461bcd60e51b815260206004820152601960248201527f4552433732313a20617070726f766520746f2063616c6c65720000000000000060448201526064016103cf565b6001600160a01b03838116600081815260056020908152604080832094871680845294825291829020805460ff191686151590811790915591519182527f17307eab39ab6107e8899845ad3d59bd9653f200f220920489ca2b5937696c31910160405180910390a3505050565b610c82848484610a0d565b610c8e84848484610e04565b6106a35760405162461bcd60e51b81526004016103cf906113a4565b6001600160a01b038216610d005760405162461bcd60e51b815260206004820181905260248201527f4552433732313a206d696e7420746f20746865207a65726f206164647265737360448201526064016103cf565b6000818152600260205260409020546001600160a01b031615610d655760405162461bcd60e51b815260206004820152601c60248201527f4552433732313a20746f6b656e20616c7265616479206d696e7465640000000060448201526064016103cf565b6001600160a01b0382166000908152600360205260408120805460019290610d8e90849061138c565b909155505060008181526002602052604080822080546001600160a01b0319166001600160a01b03861690811790915590518392907fddf252ad1be2c89b69c2b068fc378daa952ba7f163c4a11628f55a4df523b3ef908290a45050565b60008281526007602052604090206105048282611444565b60006001600160a01b0384163b15610efa57604051630a85bd0160e11b81526001600160a01b0385169063150b7a0290610e48903390899088908890600401611504565b6020604051808303816000875af1925050508015610e83575060408051601f3d908101601f19168201909252610e8091810190611541565b60015b610ee0573d808015610eb1576040519150601f19603f3d011682016040523d82523d6000602084013e610eb6565b606091505b508051600003610ed85760405162461bcd60e51b81526004016103cf906113a4565b805181602001fd5b6001600160e01b031916630a85bd0160e11b149050610a05565b506001949350505050565b6001600160e01b031981168114610f1b57600080fd5b50565b600060208284031215610f3057600080fd5b8135610f3b81610f05565b9392505050565b6000815180845260005b81811015610f6857602081850181015186830182015201610f4c565b81811115610f7a576000602083870101525b50601f01601f19169290920160200192915050565b602081526000610f3b6020830184610f42565b600060208284031215610fb457600080fd5b5035919050565b80356001600160a01b0381168114610fd257600080fd5b919050565b60008060408385031215610fea57600080fd5b610ff383610fbb565b946020939093013593505050565b60008060006060848603121561101657600080fd5b61101f84610fbb565b925061102d60208501610fbb565b9150604084013590509250925092565b60006020828403121561104f57600080fd5b610f3b82610fbb565b6000806040838503121561106b57600080fd5b61107483610fbb565b91506020830135801515811461108957600080fd5b809150509250929050565b634e487b7160e01b600052604160045260246000fd5b600067ffffffffffffffff808411156110c5576110c5611094565b604051601f8501601f19908116603f011681019082821181831017156110ed576110ed611094565b8160405280935085815286868601111561110657600080fd5b858560208301376000602087830101525050509392505050565b6000806000806080858703121561113657600080fd5b61113f85610fbb565b935061114d60208601610fbb565b925060408501359150606085013567ffffffffffffffff81111561117057600080fd5b8501601f8101871361118157600080fd5b611190878235602084016110aa565b91505092959194509250565b600080604083850312156111af57600080fd5b6111b883610fbb565b9150602083013567ffffffffffffffff8111156111d457600080fd5b8301601f810185136111e557600080fd5b6111f4858235602084016110aa565b9150509250929050565b60006020808301818452808551808352604092508286019150828160051b87010184880160005b8381101561126457888303603f1901855281518051845287015187840187905261125187850182610f42565b9588019593505090860190600101611225565b509098975050505050505050565b6000806040838503121561128557600080fd5b61128e83610fbb565b915061129c60208401610fbb565b90509250929050565b600181811c908216806112b957607f821691505b6020821081036112d957634e487b7160e01b600052602260045260246000fd5b50919050565b60208082526031908201527f4552433732313a207472616e736665722063616c6c6572206973206e6f74206f6040820152701ddb995c881b9bdc88185c1c1c9bdd9959607a1b606082015260800190565b634e487b7160e01b600052603260045260246000fd5b634e487b7160e01b600052601160045260246000fd5b60006001820161136e5761136e611346565b5060010190565b60008282101561138757611387611346565b500390565b6000821982111561139f5761139f611346565b500190565b60208082526032908201527f4552433732313a207472616e7366657220746f206e6f6e20455243373231526560408201527131b2b4bb32b91034b6b83632b6b2b73a32b960711b606082015260800190565b601f82111561050457600081815260208120601f850160051c8101602086101561141d5750805b601f850160051c820191505b8181101561143c57828155600101611429565b505050505050565b815167ffffffffffffffff81111561145e5761145e611094565b6114728161146c84546112a5565b846113f6565b602080601f8311600181146114a7576000841561148f5750858301515b600019600386901b1c1916600185901b17855561143c565b600085815260208120601f198616915b828110156114d6578886015182559484019460019091019084016114b7565b50858210156114f45787850151600019600388901b60f8161c191681555b5050505050600190811b01905550565b6001600160a01b038581168252841660208201526040810183905260806060820181905260009061153790830184610f42565b9695505050505050565b60006020828403121561155357600080fd5b8151610f3b81610f0556fea264697066735822122022dd64743083c2b28e2c5bfcc097daae6f09af9445ac25461701a6fbbd0103dc64736f6c634300080f0033",
  "immutableReferences": {},
  "source": "// SPDX-License-Identifier: MIT\r\n\r\npragma solidity ^0.8.0;\r\n\r\nimport \"@openzeppelin/contracts/token/ERC721/ERC721.sol\";\r\nimport \"@openzeppelin/contracts/utils/Counters.sol\";\r\nimport \"@openzeppelin/contracts/access/Ownable.sol\";\r\n\r\ncontract MyTokenMinter is ERC721 {\r\n    constructor() ERC721(\"MyTokenMinter\",\"MTM\"){}\r\n    using Counters for Counters.Counter;\r\n    using Strings for uint256;\r\n    Counters.Counter _tokenId;\r\n    mapping(uint256 => string) _tokenURIs;\r\n    struct RenderToken {\r\nuint256 id;\r\nstring uri;\r\n    }\r\n\r\n    function _setTokenURI(uint256 id, string memory tokenURI)internal{\r\n_tokenURIs[id] =tokenURI;\r\n    } \r\n    function tokenURI(uint256 tokenId)public view virtual override returns(string memory){\r\nrequire(_exists(tokenId));\r\nstring memory _tokenURI = _tokenURIs[tokenId];\r\nreturn _tokenURI;\r\n\r\n    }\r\n\r\n    function getAlltokens() public view returns (RenderToken[] memory){\r\nuint256 latestId = _tokenId.current();\r\nuint256 counter =0;\r\nRenderToken[] memory result = new RenderToken[](latestId);\r\nfor(uint256 i=0;i<latestId;i++){\r\n    if(_exists(counter)){\r\nstring memory uri = tokenURI(counter);\r\nresult[counter] =RenderToken(counter,uri);\r\n    }\r\n    counter++;\r\n}\r\nreturn result;\r\n    }\r\n    function mint (address recipient ,string memory uri)public returns (uint256){\r\n        uint256 newId =_tokenId.current();\r\n        _mint(recipient,newId);\r\n        _setTokenURI(newId,uri);\r\n        \r\n        _tokenId.increment();\r\n    }\r\n\r\n\r\n\r\n}",
  "sourcePath": "C:\\Users\\Eshan\\Desktop\\NFT minter using ipfs\\frontend_base_dapp\\contracts\\MyTokenMinter.sol",
  "compiler": {
    "name": "solc",
    "version": "0.8.15+commit.e14f2714.Emscripten.clang"
  },
  "schemaVersion": "3.4.7",
  "updatedAt": "2022-07-23T05:14:18.570Z",
  "devdoc": {
    "kind": "dev",
    "methods": {
      "approve(address,uint256)": {
        "details": "See {IERC721-approve}."
      },
      "balanceOf(address)": {
        "details": "See {IERC721-balanceOf}."
      },
      "getApproved(uint256)": {
        "details": "See {IERC721-getApproved}."
      },
      "isApprovedForAll(address,address)": {
        "details": "See {IERC721-isApprovedForAll}."
      },
      "name()": {
        "details": "See {IERC721Metadata-name}."
      },
      "ownerOf(uint256)": {
        "details": "See {IERC721-ownerOf}."
      },
      "safeTransferFrom(address,address,uint256)": {
        "details": "See {IERC721-safeTransferFrom}."
      },
      "safeTransferFrom(address,address,uint256,bytes)": {
        "details": "See {IERC721-safeTransferFrom}."
      },
      "setApprovalForAll(address,bool)": {
        "details": "See {IERC721-setApprovalForAll}."
      },
      "supportsInterface(bytes4)": {
        "details": "See {IERC165-supportsInterface}."
      },
      "symbol()": {
        "details": "See {IERC721Metadata-symbol}."
      },
      "tokenURI(uint256)": {
        "details": "See {IERC721Metadata-tokenURI}."
      },
      "transferFrom(address,address,uint256)": {
        "details": "See {IERC721-transferFrom}."
      }
    },
    "version": 1
  },
  "userdoc": {
    "kind": "user",
    "methods": {},
    "version": 1
  }
}